:1000000012C019C018C017C016C015C014C013C044
:1000100012C011C010C00FC00EC00DC00CC00BC06C
:100020000AC009C008C011241FBECFE5D4E0DEBF5E
:10003000CDBF02D02CC0E4CF80EF81BB81E090E047
:1000400020E335E709C082BBF9013197F1F7F901E7
:100050003197F1F7880F991F81389105A4F380E853
:1000600090E082BBF9013197F1F7F9013197F1F78F
:10007000AC0197FF02C04F5F5F4F55954795841BBA
:10008000950B823091056CF781E090E0E5CFF89414
:02009000FFCFA0
:00000001FF
